:020000040800F2
:10000000A84500205D020008CB24000871220008EA
:10001000C9240008710A0008DD2B00080000000058
:100020000000000000000000000000009D0100082A
:10003000310C000800000000F901000875280008D4
:1000400077020008770200087702000877020008AC
:10005000770200087702000877020008770200089C
:10006000770200087702000877020008770200088C
:10007000770200087702000877020008770200087C
:1000800077020008770200083D090008770200089F
:10009000770200087702000877020008770200085C
:1000A000770200087702000877020008770200084C
:1000B000770200087702000877020008770200083C
:1000C000770200087702000877020008770200082C
:1000D00077020008D12B0008770200087702000899
:1000E000770200087702000877020008770200080C
:1000F00077020008770200087702000877020008FC
:1001000077020008770200087702000877020008EB
:100110002D290008770200087702000877020008FE
:1001200077020008770200087702000877020008CB
:1001300077020008770200087702000877020008BB
:1001400077020008770200087702000877020008AB
:10015000770200087702000877020008770200089B
:10016000770200087702000877020008770200088B
:1001700077020008770200087702000800000000FC
:100180007702000877020008DFF80CD000F0B2FB1D
:10019000004800472D370008A84500202C4B19685F
:1001A0000868B0E8F04F80F30988BFF36F8F4FF015
:1001B000000080F3118870470000000008480068C4
:1001C000006880F308884FF0000080F3148862B65E
:1001D00061B6BFF34F8FBFF36F8F00DF00BF00BF6B
:1001E00008ED00E0DFF80C00016841F470010160E7
:1001F000704700BF88ED00E0EFF30980BFF36F8F19
:10020000134B1A681EF0100F08BF20ED108A20E96A
:10021000F04F106009B44FF0500080F31188BFF325
:100220004F8FBFF36F8F03F029FF4FF0000080F373
:10023000118809BC19680868B0E8F04F1EF0100F6B
:1002400008BFB0EC108A80F30988BFF36F8F704746
:1002500050000020EFF305807047000006488047FB
:1002600006480047FEE7FEE7FEE7FEE7FEE7FEE79B
:10027000FEE7FEE7FEE7FEE71D290008890100080A
:100280002DE9F05F0546002092469B4688460646CB
:10029000814640241BE0284641464746224600F05E
:1002A0003EF953465A46C01A914110D3114618469A
:1002B000224600F025F92D1A67EB01084F46224629
:1002C0000120002100F01CF917EB00094E41201E0F
:1002D000A4F10104DFDC484631462A464346BDE826
:1002E000F09F40EA01039B0703D009E008C9121FF1
:1002F00008C0042AFAD203E011F8013B00F8013BE0
:10030000521EF9D27047D2B201E000F8012B491E0B
:10031000FBD270470022F6E710B513460A460446A2
:100320001946FFF7F0FF204610BD30B505462A46B6
:100330000B4612F8010B13F8014B08B1A042F8D09C
:100340001CB1002802D06D1CF1E7284630BD421CCC
:1003500010F8011B0029FBD1801A704710B500224C
:1003600000E0521C835C8C5CA34201D1002BF8D1CD
:10037000D8B2E1B2401A10BD2DE9FE4F81EA030464
:1003800004F0004421F0004100944FF0000B23F0F2
:10039000004350EA01045ED052EA03045BD0C3F389
:1003A0000A54C1F30A552C44A4F2F3340194A0FB7F
:1003B0000254C1F3130141F48011C3F3130343F456
:1003C000801301FB024400FB034E840A970A44EAAF
:1003D000815447EA8357A4FB076802958D0A05FB01
:1003E00007854FEA932C04FB0C542705029D4FEA26
:1003F000065847EA1637B5EB08056EEB070C870E73
:10040000920E47EA811742EA8312A7FB0201B6EB7C
:100410000B0164EB00042B0D43EA0C335E1844EB34
:100420001C50DA465146E7FB0201C5F313044FEABC
:100430000B3343EA14534FEA0432019C43EA0603A8
:10044000A4F10C040294009CCDE900B400F0BDF8C6
:1004500003B0BDE8F08F00200146F9E70EB540F289
:10046000334102910021CDE900110A460B4600F00C
:10047000ACF803B000BD00F0004230F000400AD0FC
:10048000C10D01F56071C0F3160042EA0151C208C6
:1004900040071143704700200146704701F00043B8
:1004A00030B421F0004150EA010206D00A0DA2F555
:1004B0006072C1F31301002A02DC30BC00207047D7
:1004C000440F44EAC104C100E01830BC00EBC25044
:1004D00000F035B830B50B4601460020202201243B
:1004E00009E021FA02F59D4205D303FA02F5491B02
:1004F00004FA02F52844151EA2F10102F1DC30BD18
:10050000202A04DB203A00FA02F1002070479140D3
:10051000C2F1200320FA03F3194390407047202AC8
:1005200004DB203A21FA02F00021704721FA02F39D
:10053000D040C2F12002914008431946704700297B
:10054000A8BF7047401C490008BF20F00100704759
:1005500010B4B0FA80FC00FA0CF050EA010404BFB9
:1005600010BC704749B1CCF1200421FA04F411FA0F
:100570000CF118BF012121430843A3EB0C01CB1D53
:100580004FEA00614FEA102042BF002010BC7047C4
:1005900000EBC35010440029A4BF10BC7047401C9E
:1005A000490008BF20F0010010BC704710B5141EB0
:1005B00073F1000408DA401C41F1000192185B411C
:1005C0001A4301D120F0010010BD2DE9F04D9246F3
:1005D0009B4611B1B1FA81F202E0B0FA80F220320A
:1005E0009046FFF78DFF04460F4640EA0A0041EAB5
:1005F0000B0153465A46084313D0114653EA0100F3
:1006000019D0C8F140025046FFF789FF05460E4653
:10061000504659464246FFF773FF084305D0012074
:1006200004E020463946BDE8F08D0020054346EA47
:10063000E0762C4337430A986305E40AA0EB0800F0
:100640000022FD0A44EA47540A3002D50020014640
:10065000E9E7010510196941DDE90845001969411B
:10066000BDE8F04DA2E72DE9FE4F804681EA030088
:10067000C00F0C46009021F0004123F00045B8EB7C
:100680000200A94105D24046214690461C460B4631
:10069000024623F00040104347D0270DC7F30A005D
:1006A000C3F30A510290401A019040286BDAC3F359
:1006B000130040F4801B0098924620B10023D2EB37
:1006C000030A63EB0B0B01985946C0F140025046F8
:1006D000FFF716FF06460D4650465946019A00F0B0
:1006E0001BF910EB08006141002487EA115284EAEB
:1006F000E7731A4340D0009A62B3019A012A4FEA85
:10070000075215DC001B61EB02014FF0004202EAC8
:100710000752CDE90042001C41F5801132462B46BC
:10072000FFF753FF03B0BDE8F08F40462146F9E7DD
:10073000001B61EB0201001C41F5801300185B41B6
:100740002018A2F5001747EB030140EAD570B6194F
:100750006D4111E06D084FEA360645EAC0754FEA73
:100760000752001B61EB0201001C41F58011490892
:100770004FEA30000019514132462B4603B0BDE824
:10078000F04FFFF713BF0098012240000023D0EB89
:10079000020263EBE073009821464FEAE074B8EB85
:1007A000000061EB0401E9E783F000435BE781F0BF
:1007B000004158E72DE9F04D81EA030404F0004BB5
:1007C00021F0004514464FF0000A23F0004150EAA2
:1007D000050220D054EA01021DD0C5F30A57024693
:1007E000C5F31303C1F31300C1F30A5640F4801597
:1007F00043F48013A7EB0608101BD64608F2FD3819
:1008000073EB050002D308F1010801E092185B4187
:10081000B8F1000F03DA00200146BDE8F08D00209A
:100820004FF48011064684460EE0171B73EB050754
:1008300005D3121B63EB050306434CEA010C490880
:100840004FEA300092185B4150EA0107EDD152EABD
:10085000030012D082EA040083EA0501084305D0B0
:10086000101BAB4106D20122002306E000224FF00C
:10087000004302E06FF0010253101AEB06004CEB4C
:10088000085110EB0A0041EB0B01BDE8F04DFFF7FA
:100890008DBEC1F30A52C1F3130140F2FF3341F49C
:1008A00080119A4202DA00200146704740F2334339
:1008B0009A42A2F2334202DC5242FFF730BEFFF707
:1008C0001FBE000030B5041E71F1000404DB4FF0C0
:1008D0000044404264EB0101141E73F1000405DB87
:1008E0001C464FF00043524263EB0403994208BF99
:1008F000904230BD064C074D06E0E06840F0010331
:1009000094E8070098471034AC42F6D3FFF740FC58
:1009100098450008B8450008202A06DBCB17203A86
:1009200041FA02F043EAE07306E041FA02F3D040F4
:10093000C2F120029140084319467047014800F077
:10094000C6BB000020030020464910B54A6822F4C7
:1009500040324A604A6843681A434A6001684A68FC
:1009600022F480724A6001684A68036942EA0322FD
:100970004A6001684A6822F040724A6001684A6829
:1009800083681A434A6001688A6822F400628A60B8
:1009900001688A68C3681A438A60816A6FF070626E
:1009A000D14201688A6822F070628A6001688A68B0
:1009B0000CD0836A1A438A6001688A6822F0405228
:1009C0008A6001688A68C36A1A4301E022F04052D3
:1009D0008A6001688A6822F002028A6001688A6877
:1009E000037E42EA43028A6090F8201000290168E1
:1009F0004A680FD042F400624A6001684A6822F4F3
:100A000060424A6001684A68174C436A04EB43330A
:100A10001A4301E022F400624A600168CA6A22F4C3
:100A20007002CA620168CA6A838B104C04EB0353DC
:100A30001A43CA6201688A6822F400728A600168F7
:100A40008A6890F8303042EA43228A6001688A68F6
:100A500022F480628A6001688A68406942EA8020E4
:100A6000886010BD0023014000E0FFFF0000F0FFA0
:100A7000FEE706E00021491CC9B20F29FBD3401E46
:100A800080B20028F6D17047094808B5016841F0E6
:100A900040010160006800F04000009000F00CF898
:100AA0000122BDE808400221024800F06ABE0000B1
:100AB00030380240000C024000B585B00220012110
:100AC000CDE9000103906946024800F05FFD05B0E2
:100AD00000BD0000000C02402DE9F0410025154E3C
:100AE0002C4601270221304600F046FE0028F9D0AE
:100AF0002820FFF7BEFF0221304600F03DFE01280E
:100B00000BD0C4F1070007FA00F08543641CE4B27F
:100B1000082CE7D32846BDE8F0810221304600F0DA
:100B20002BFE0128F9D0C4F1070007FA00F0C0B28B
:100B30000543EBE7000C024070B586B00446FFF7B2
:100B4000BBFF394D00220221284600F01AFE44F274
:100B50005060FFF78EFF01220221284600F011FEAF
:100B60001E20FFF786FF0220009000200190012048
:100B700002906946284600F009FD0221284600F04F
:100B8000FBFDE8BB0221284600F0F6FD0028F9D065
:100B90000221284600F0F0FD0128F9D0FFF79CFF64
:100BA0002070FFF799FF6070FFF796FFA070FFF7C6
:100BB00093FFE070FFF790FF2071FFF77DFF0122A8
:100BC0000221284600F0DDFD23786078A178E278E4
:100BD0001D188E1835442679EDB2AE4222D103EBB2
:100BE000C30505EB031300EB830000EE100ADFEDF5
:100BF0000F0AB8EE400A80EE201A84ED021A00E0D7
:100C000010E001EBC10000EB011002EB800000EEF0
:100C1000100A0020B8EE400A80EE201A84ED031A74
:100C200006B070BD0120FBE7000C02400000C84286
:100C30007047000070B5B2B001224D494D4801F037
:100C40009DFA4B4B4CA11033A3F10902684602F008
:100C5000C7F8474C4EA1641E04F11C0219A8636832
:100C600002F0BEF841F288354FF47A662278F2B18C
:100C7000012A2BD0022A34D0032A46D0042A50D08D
:100C8000052A5FD0062A68D0072AEFD147A002F0D4
:100C900097F8314650A002F033F80028E6D02078CB
:100CA000401C207050A002F08BF832B070BD52A0F2
:100CB00002F086F8284601F0D1FF0028D6D052A0D5
:100CC00002F07EF82078401C2070CFE755A002F09B
:100CD00077F831465CA045E02078401C20705EA08B
:100CE0002DE064A002F06CF8294667A002F008F835
:100CF0000028BBD02078401C207057A002F060F87C
:100D00004FF47A7000F030FCB0E762A002F058F8BF
:100D10004FF4FA5168461BE02078401C207064A014
:100D20000DE06AA002F04CF84FF4FA6170A001F0F7
:100D3000E7FF00289AD02078401C207070A002F0B5
:100D40003FF893E773A002F03BF841F2707119A8E5
:100D500001F0D6FF002889D0DEE775A002F030F858
:100D600031467FA001F0CCFF0028AED0B4E70000F0
:100D7000150000206803002041542B43574A41507E
:100D80003D222573222C222573220D0A000000002B
:100D900041542B43495053544152543D22544350E3
:100DA000222C222573222C25640D0A007374657091
:100DB000372D3E207374617274207472616E73708B
:100DC0006172656E74207472616E736D697373699C
:100DD0006F6E2E2E2E0D0A0041542B434950534561
:100DE0004E440D0A000000007375636365737366FB
:100DF000756C210D0A0000007769666920726573C1
:100E000065742E2E2E0D0A0077696669207265734F
:100E10006574207375636365737366756C210D0A61
:100E20000000000073746570312D3E20636F6E66A4
:100E300069672061732073746174696F6E206D6FD0
:100E40006465210D0A00000041542B43574D4F4467
:100E5000453D310D0A000000636F6E66696775726B
:100E60006174696F6E207375636365737366756C07
:100E7000210D0A0073746570322D3E207265737403
:100E8000617274210D0A000041542B5253540D0A13
:100E90000000000073746570332D3E20636F6E6E2A
:100EA00065637420726F75746572210D0A0000000D
:100EB000636F6E6E656374696F6E207375636365CF
:100EC000737366756C210D0A000000007374657001
:100ED000342D3E2073746172742073696E676C6583
:100EE00020726F757465206D6F6465210D0A0000B6
:100EF00041542B4349504D55583D300D0A000000D8
:100F00007374617274207375636365737366756C53
:100F1000210D0A0073746570352D3E20636F6E6E6F
:100F200065637420736572766572210D0A00000096
:100F300073746570362D3E20636F6E66696720613D
:100F400073207472616E73706172656E7420747256
:100F5000616E736D697373696F6E210D0A00000015
:100F600041542B4349504D4F44453D310D0A00003B
:100F700072B6FEE77047000078B50024009490F840
:100F80003C20012A19D0012280F83C200A6807235E
:100F90000568092A13D9EE680A3A02EB4202934027
:100FA0009E43EE600B788A680A3B03EB43039A404A
:100FB0000368DD682A43DA6010E0022078BD2E69FC
:100FC00002EB420293409E432E610B788A6803EB4A
:100FD00043039A4003681D692A431A614A681F2324
:100FE000072A13D205686E6B521E02EB82029340F1
:100FF0009E436E630B790A885B1E92B203EB8303F8
:101000009A4003685D6B2A435A6327E005680D2AFE
:1010100012D22E6BD21F02EB820293409E432E63AC
:101020000B790A88DB1F92B203EB83039A400368B3
:101030001D6B2A431A6311E0EE6A0D3A02EB82023D
:1010400093409E43EE620B790A880D3B92B203EB0C
:1010500083039A400368DD6A2A43DA62164B056807
:10106000144A9D4206D10D68122D03D1556845F4EE
:101070008005556005689D4218D10B68102B01D082
:10108000112B13D1536843F40003536009681029EE
:101090000CD10A490A4A0968B1FBF2F101EB81015E
:1010A000490000E0491E00910029FBD180F83C4036
:1010B000002078BD00230140002001404C000020AA
:1010C00040420F00704770470068C06C704770B5B1
:1010D0000446006801684268C1F34001C2F340124F
:1010E00051B34AB3216CC90603D4216C41F4007199
:1010F0002164816811F0405F17D1217EA9B9C16ACE
:1011000011F4700F02D0816849050ED4416821F0B6
:1011100020014160206C20F480702064206CC004A9
:1011200003D4206C40F0010020642046FFF7CAFF82
:1011300021686FF012000860206801684268C1F3FE
:101140008001C2F3C01289B382B3216CC90603D4F3
:10115000216C41F400512164816811F4401F1ED1BB
:10116000816B11F4401F02D08168490517D4416892
:10117000490514D4816811F0405F10D1217E71B906
:10118000416821F080014160206C20F4805020648F
:10119000206CC00503D4206C40F001002064204680
:1011A000FFF7E8FE21686FF00C0008602068016816
:1011B000426811F0010FC2F380120ED06AB10068CC
:1011C000C0070AD0206C40F480302064204600F034
:1011D00046F821686FF001000860206801684268E5
:1011E000C1F34011C2F3806200290DD0002A0BD058
:1011F000616C41F0020161646FF0200505602046DA
:10120000FFF761FF2068056070BD70B504004FF006
:10121000000503D0206C002610B107E0012070BD4E
:10122000204600F01DF8666484F83C60206CC0061F
:1012300010D4206C20F4885040F002002064204636
:10124000FFF782FB6664206C20F0020040F0010092
:10125000206400E0012584F83C60284670BD70479A
:1012600010B586B0044614216846FFF753F81549B7
:101270002068884224D114480021026842F4807218
:101280000260006800F4807005900F48143802680E
:1012900042F001020260006800F001000590202089
:1012A00000900320CDE901016946084800F06EF97D
:1012B00000220521122000F0DBFA122000F0CAFA09
:1012C00006B010BD0020014044380240000002403A
:1012D0002DE9F041044600680D4681684FF0000793
:1012E00049050BD58068C00508D5206C40F020006A
:1012F000206484F83C700120BDE8F08100F046FADB
:10130000064613E0681C11D025B100F03FFA801B9F
:10131000A8420BD920680068800707D4206C40F0F1
:101320000400206484F83C700320E5E7206800682E
:101330008007E7D521686FF012000860206C40F448
:10134000007020642068816811F0405F13D1217E15
:1013500089B9C16A11F4700F02D0806840050AD4BF
:10136000206C20F480702064206CC00403D4206CB6
:1013700040F0010020640020BEE7000018B5002105
:10138000009190F83C20012A07D0012280F83C20EF
:1013900002689368DB0702D011E0022018BD936851
:1013A00043F0010393602E4A2E4B1268B2FBF3F216
:1013B00002EB420200E0521E0092002AFBD10268BA
:1013C0009368DB0742D0036C40F20164A34343F40B
:1013D0008073036453685B0505D5036C23F40053E5
:1013E00043F480530364036CDB0404D5436C23F0A3
:1013F0000603436400E0416480F83C101A496FF032
:101400002203136049680068CA06184906D088425A
:1014100024D1816811F0405F13D01FE08842F8D0DA
:10142000134A904203D1D1F80423D206F1D0114AD5
:10143000904213D1D1F8041301F01F011029E8D311
:101440000CE0816841F08041816007E0016C41F06F
:1014500010010164416C41F001014164002018BD9C
:101460004C00002040420F000023014000200140BA
:10147000002101400022014090F83C1001290CD0CD
:10148000012180F83C1001688A6822F001028A601C
:1014900001688968C90702D007E002207047016C23
:1014A00021F4885141F001010164002180F83C10D1
:1014B000084670472DE9F0410446876D00F066F953
:1014C000064694F835000025022806D08020606585
:1014D00084F834500120BDE8F0812068016821F0D3
:1014E000160101602068416921F080014161206C92
:1014F00008B9A06C20B12068016821F008010160E2
:101500002068016821F0010101600BE000F03EF964
:10151000801B052806D92020606504F8345F03206D
:101520006070D8E720680068C007EFD194F85C10BD
:101530003F208840B86004F8345F012060700020CC
:10154000C9E790F83510022903D0802141650120B8
:101550007047052180F835100068016821F001010D
:10156000016000207047000070B5044600F00EF9DD
:101570000546601C02D004480078044400F006F9D7
:10158000401BA042FAD370BD400000202DE9F84F67
:10159000DFF8B8A1002201250AF1040B03264FF061
:1015A0000F090BF1040E00BF0B6805FA02F423408B
:1015B000A3426FD10F7907F00307012F01D0022F4B
:1015C00016D187684FEA420806FA08FC27EA0C079A
:1015D000D1F80CC00CFA08FC4CEA070CC0F808C0A3
:1015E0004768A7430C79C4F3001494403C4344601B
:1015F0000C79E443A4070AD0C4684FEA420C06FA07
:101600000CF7BC438F6807FA0CF72743C7600C79C7
:1016100004F00304022C12D1D40800EB840CDCF893
:1016200020405707FF0E09FA07F824EA0804D1F80A
:10163000108008FA07F848EA0408CCF8208004680B
:101640004FEA420C06FA0CF7BC430F7907F0030788
:1016500007FA0CF7274307604C68E40070D53C4C50
:10166000276847F480472760246822F0030704F4C2
:1016700080440094374C07EB040CDCF808489707CB
:101680004FEA177809FA08F7BC43334FB84202D142
:10169000002724E054E0314FB84201D101271EE079
:1016A0002F4FB84201D1022719E02E4FB84201D185
:1016B000032714E02C4FB84201D104270FE02B4F31
:1016C000B84201D105270AE0294FB84201D10627C7
:1016D00005E0284FB84201D1072700E0082707FAA4
:1016E00008F72743CCF80878DAF800405746D1F8D5
:1016F00004C09C435FEACC3C00D51C433C60DBF853
:1017000000405F46D1F804C09C435FEA8C3C00D5A2
:101710001C433C60DEF800407746D1F804C09C438F
:101720005FEACC2C00D51C433C60084F0C373C686A
:10173000D1F804C09C435FEA8C2C00D51C433C606C
:10174000521C102AFFF430AFBDE8F88F003C014076
:1017500044380240003001400000024000040240D2
:1017600000080240000C0240001002400014024039
:1017700000180240001C02400069084000D001200F
:1017800070470AB1816170470904FBE7014880682E
:101790007047000040000020024881680278114430
:1017A00081607047400000200B4810B5016841F48B
:1017B00000710160016841F480610160016841F4D9
:1017C00080710160032000F073F80F2000F006F82C
:1017D00000F024F8002010BD003C024070B50D4D13
:1017E00004464FF47A712878B1FBF0F00A49096891
:1017F000B1FBF0F000F00EFB48B9102C07D200222C
:101800002146501E00F034F800206C6070BD0120AD
:1018100070BD0000400000204C0000200C4882B049
:10182000016841F480410160006800F4804000904C
:101830000748001F016841F08051016000680022E4
:1018400000F0805000900F21901E02B000F010B800
:1018500044380240002809DB00F01F0201219140BA
:101860004009800000F1E020C0F80011704700003E
:10187000F0B40E4B1B680C46C3F30223C3F10705FB
:10188000042D00D90425191D072901D2002300E0E9
:10189000DB1E012606FA05F1491E214099409E40B3
:1018A000761E16403143F0BC01F0AEBA0CED00E0FC
:1018B000064900F0070208684FF6FF03184040EAA7
:1018C0000220034A10430860704700000CED00E05E
:1018D0000000FA052DE9F0470E46050065D0DFF857
:1018E0001481D8F80000F7B200F00700B04207D228
:1018F00088F80070D8F8000000F00700B04254D11A
:1019000028683D4C810712D5400703D5206840F474
:10191000E05020602878000703D5206840F460403C
:1019200020602068A96820F0F00008432060287833
:10193000C0072DD0304968680839012812D0022824
:1019400013D0032811D00968890700292DDA2168EE
:1019500021F0030101432160FFF718FF814641F2A6
:10196000883A0EE009688903EFE709688901ECE726
:10197000FFF70CFFA0EB0901514502D90320BDE898
:10198000F0872068696800F00C00B0EB810FEFD1A0
:10199000D8F80010404601F00701B14207D907709E
:1019A000006800F00700B04201D00120E7E7287886
:1019B000400705D52068E96820F4E050084320601E
:1019C0002878000706D52068296920F4604040EA9D
:1019D000C100206000F038F82168084AC1F3031103
:1019E000515CC8400649086006480068FFF7F6FEEB
:1019F0000020C4E7003C0240083802404C45000883
:101A00004C00002044000020044805490068096893
:101A1000044AC1F38221515CC84070474C00002049
:101A2000083802405C450008044805490068096818
:101A3000044AC1F34231515CC84070474C00002059
:101A4000083802405C450008154810B5006810F0E1
:101A50000C02144813D04110042A0FD0082A0ED1CA
:101A60000F4C241F2268236802F03F025B0207D557
:101A70002068C0F38810A0FB010106E0084610BDF5
:101A80002168C1F38811A1FB00010023FEF7F8FBD8
:101A90002168C1F30141491C4900B0FBF1F010BDC0
:101AA000083802400024F4002DE9F84F04006ED0FD
:101AB0002078DFF84C93C007A9F104054AD009F15A
:101AC00004000168C1F38101012908D00068C0F356
:101AD000810002280AD1D9F80000400206D5286802
:101AE000800337D560680028E1D033E06068B0F546
:101AF000803F10D0B0F5A02F286810D020F480309F
:101B00002860286820F4802028606068A8B1FFF76A
:101B10003DFE06460DE0286840F48030F4E740F4CE
:101B200080202860F7E700BFFFF730FE801B6428A5
:101B300073D828688003F7D50CE0FFF727FE064628
:101B400005E000BFFFF722FE801B6428F0D828685C
:101B50008003F7D42078DFF8AC8280074FF0000ACA
:101B60003ED5A748001D016811F00C0F08D0006891
:101B7000C0F3810002280BD1D9F80000400207D43D
:101B80002868800716D5E068012800D112E033E10B
:101B9000E068B8B10120C8F80000FFF7F7FD06467D
:101BA00005E000BFFFF7F2FD801B0228C0D82868BF
:101BB0008007F7D52868216920F0F80040EAC100C5
:101BC00028600DE0C8F800A0FFF7E0FD064604E03D
:101BD000FFF7DCFD801B02281FD828688007F7D498
:101BE0002078000722D5864F87486169703771B128
:101BF00001210160FFF7CAFD064604E0FFF7C6FDBC
:101C0000801B022809D838688007F7D50EE0C0F895
:101C100000A0FFF7BBFD064605E082E0FFF7B6FD3A
:101C2000801B02287DD838688007F7D420784007C9
:101C300068D5DFF8CCB100270BF13C0BDBF80000D6
:101C4000C0000BD4DBF8001041F08051CBF800103D
:101C5000DBF80000012700F0805000906B4E3068E8
:101C6000C00510D4306840F480703060FFF78EFDFE
:101C7000009005E0FFF78AFD0099401A022850D82D
:101C80003068C005F6D55E4EA0686C3601280FD0CE
:101C90000528306810D020F001003060306820F056
:101CA00004003060A068B8B1FFF770FD00900FE04D
:101CB000306840F00100F4E740F004003060F7E7DE
:101CC000FFF764FD0099411A41F28830814266D8DD
:101CD00030688007F4D50EE0FFF758FD009007E06C
:101CE000FFF754FD0099411A41F28830814256D8DD
:101CF00030688007F4D42FB1DBF8001021F0805158
:101D0000CBF80010A069C8B33D49091D0968C1F3AB
:101D1000810102294AD00228504607D0C8F8600045
:101D200000E03CE0FFF732FD04463BE04746C8F8E0
:101D30006000FFF72BFD064605E000BFFFF726FD1C
:101D4000801B02282BD828688001F7D4D4E907012A
:101D50000843A16A2E4A490802EB0141626A41EA3E
:101D60008211084394F82C1040EA0161C9F8001070
:101D700001203866FFF70AFD044606E03EE000BF9A
:101D8000FFF704FD001B022809D828688001F7D559
:101D900034E000BFFFF7FAFC001B022802D9032041
:101DA000BDE8F88F28688001F4D427E00128F7D037
:101DB000D9F80000E26900F4800191421CD1226A46
:101DC00000F03F01914217D147F6C071626A0140AD
:101DD000B1EB821F10D1A26A4FF0FF3300F4403103
:101DE00003EB5202B1EB024F06D194F82C1000F035
:101DF0007060B0EB016F01D00120D1E70020CFE788
:101E00000438024000004742800E47420070004004
:101E10000000FFFF10B5401EB0F1807F01D301200C
:101E200010BD4FF0E02460610F21601700F0ECFF5F
:101E30000020A06107202061002010BD704770477E
:101E4000F8B5026804461068D168536910F00F0FA6
:101E50004FF0000553D003F0010601F490773743AB
:101E60005FD0C20705D0CA0503D5226C42F001023B
:101E70002264420705D5DA0703D0226C42F0020241
:101E80002264820705D5DA0703D0226C42F00402EF
:101E90002264020707D501F02002324303D0226CEE
:101EA00042F008022264226C002A34D0800604D555
:101EB000880602D5204600F05FFD20684069216C4D
:101EC000C0F38010090700D430B3204600F03CFD79
:101ED0002068416949061BD5416921F040014161F3
:101EE000A06BA8B159490165A06BFFF72AFB002838
:101EF00011D0A06B016D01B0BDE8F040084783062A
:101F00000FD58B060DD52046BDE8F84000F034BD56
:101F10002046FFF794FFF8BD2046FFF790FF2564A9
:101F2000F8BD266B2023012E53D1C60651D5CE060F
:101F30004FD5106850680090506940062BD5A16BB2
:101F4000086840680004000CEAD0A68D8642E7D9F4
:101F5000E085C869B0F5807F18D0D06820F4807023
:101F6000D0602068416921F0010141612068416928
:101F700021F04001416184F83E3025632068C1684A
:101F800021F01001C160A06BFFF794FAA08DE18DE4
:101F9000401A81B219E0A08DE18D401A81B2E08D26
:101FA0000028BDD00029BBD0D06820F49070D0604C
:101FB0002068426922F00102426184F83E302563C4
:101FC0002068C26822F01002C2602046FFF736FF88
:101FD000F8BD05062BD50D0629D594F83D0021281E
:101FE000F6D1A068B0F5805F01D12069B0B1206A58
:101FF000411C2162216800784860E08C401E00048A
:10200000000CE084E4D12068C16821F08001C16047
:102010002068C16841F04001C160F8BD206A0088B5
:10202000C0F308005060206A801C2062E5E740068B
:10203000F3D54806F1D5D168204621F04001D160A2
:1020400084F83D3000F013F9F8BD0000392900088C
:1020500070B5040004D094F83D00002510B106E0EE
:10206000012070BD84F83C50204600F023F8242065
:1020700084F83D002068C16821F40051C160204609
:1020800000F0D2FC2068016921F4904101612068D0
:10209000416921F02A0141612068C16841F4005181
:1020A000C1602564202084F83D0084F83E000020B3
:1020B00070BD000070B586B0044614216846FEF776
:1020C00029F92A4E22680025294903230224294898
:1020D000B24222D1264A1032156845F40025156017
:1020E000126802F4002205920A6842F001020A60B6
:1020F000096801F0010105910121CDE90213CDE943
:102100000034082104916946FFF740FA00220521B6
:102110003420FFF7ADFB342024E0174EB24223D128
:10212000134A1432166846F010061660126802F060
:10213000100205920A6842F001020A60096801F083
:10214000010105914FF4C0618DE832000721CDE90E
:1021500003316946FFF71AFA002205212520FFF70F
:1021600087FB2520FFF776FB06B070BD004C0040D2
:1021700030380240000002400010014090F83E302C
:10218000202B0ED159B152B190F83C30012B08D020
:10219000012380F83C300023036300F0CBBC012016
:1021A000704702207047000000680349884201D14F
:1021B00000F016BD70470000004C00402DE9F843C8
:1021C000044690F83D001F4616460D4620284CD187
:1021D000C5B1BEB194F83C00012846D0012084F876
:1021E0003C004FF00008C4F84080212084F83D00F6
:1021F000FFF7CCFAA6848146E684A068B0F5805F3C
:1022000003D004E00120BDE8F883206928B12E4600
:102210005FF0000584F83C800EE00026FAE780219C
:10222000204600F0A2FCA0B9AEB116F8010B21685F
:102230004860E08C401EE084E08C4B464FF000028A
:1022400000970028EBD14FF04001204600F08DFCB4
:1022500030B10320D7E735F8020BC0F30800E6E7FA
:10226000202084F83D000020CDE70220CBE7704716
:10227000FEE700007FB50024144800940194029406
:1022800011490394C0E9001484600461047680F865
:1022900020400F49C0E90A140125C561C46080F8D7
:1022A00030404561FEF7B1FF08B1FEF761FE052041
:1022B000CDE90005694602940448FEF75DFE00285A
:1022C00001D0FEF755FE7FBD002001402003002015
:1022D0000100000F10B59CB01C2216496846FEF79D
:1022E00000F80021684601F048FA134C11491C22FD
:1022F00060601C3107A8FDF7F4FF002107A801F07A
:102300003CFA0C49A0601C2238310EA8FDF7E9FF09
:1023100000210EA801F031FA0649E0601C22543178
:1023200015A8FDF7DEFF002115A801F026FA2061AF
:102330001CB010BDDC440008000000202DE9F0476F
:1023400086B014216846FDF7E5FF3E480024016889
:1023500041F010010160016801F010010591016870
:1023600041F080010160016801F080010591016880
:1023700041F001010160016801F00101059101686E
:1023800041F020010160016801F020010591016820
:1023900041F040010160016801F0400105910168D0
:1023A00041F0080101600068274F00F00800059027
:1023B000012218213846FFF7E4F9DFF890804FF446
:1023C0008046002231464046FFF7DBF9DFF8809077
:1023D000002280214846FFF7D4F9DFF878A00022D8
:1023E00002215046FFF7CDF9012251024846FFF77E
:1023F000C8F9182000900125CDE9015469463846F6
:102400000394FFF7C3F80096CDE9015469464046AE
:102410000394FFF7BBF84FF420700090CDE901540E
:10242000694648460394FFF7B1F802200090CDE9D1
:102430000154694650460394FFF7A8F806B0BDE87A
:10244000F0870000303802400010024000140240C3
:1024500000180240000C02400C4810B50A49016007
:102460004FF4E1314160002181600C22C160C0E97C
:1024700004128161C161FFF7EBFD002803D0BDE8C4
:102480001040FEF775BD10BD004C004068030020F1
:102490000C4810B50A4901604FF4E1314160002158
:1024A00081600C22C160C0E904128161C161FFF743
:1024B000CFFD002803D0BDE81040FEF759BD10BD88
:1024C00000100140AC030020FEE7FEE7194C9FED31
:1024D000180A2DED028B84ED000A206901F092F9B3
:1024E0009FED158B40F628251548FEF747FFC821BC
:1024F0001348FEF7EDFE68B112A000BF00F060FCCB
:10250000284601F02EF90E48FEF7B6FF642001F0D0
:1025100028F9E9E70A48FEF7D7FDFDF79FFF53ECDE
:10252000182BFDF729FFFDF7B9FF20600AA0E5E7AA
:1025300000000000000000200000000000C8E93F8B
:1025400020030020B6C1C8A1B9E2C3F4B5E7D7E8BB
:10255000CAA7B0DC0D0A0000B3C9B9A6BBF1C8A177
:10256000BBB7BEB3B9E2D0C5CFA20D0A00000000D0
:102570000E489FED0D0A80ED020A80ED030A0C481B
:10258000C06801F03FF940F6C414204601F0E9F8B4
:102590000648FEF7D1FA20B106A000BF00F010FCFB
:1025A000F3E709A0FAE7000000000000BC000020EB
:1025B00000000020B6C1C8A1CEC2CAAAB6C8CAA728
:1025C000B0DC0D0A00000000B3C9B9A6B6C1C8A1AD
:1025D000CEC2CAAAB6C8D0C5CFA20D0A000000005C
:1025E000574D584E584F594C4FF40078B5F90000EC
:1025F000401CFBD12880564956A000F0E1FB57A1B2
:102600005348FDF7ABFE002842D057A15048FDF7D4
:10261000A5FE00283ED057A14D48FDF79FFE00289B
:102620003CD057A14A48FDF799FE002838D057A161
:102630004748FDF793FE002835D057A14448FDF7E1
:102640008DFE002831D057A14148FDF787FE0028B4
:102650002ED057A13E48FDF781FE58B357A13C4804
:10266000FDF77CFE60B358A13948FDF777FE60B3F3
:1026700058A13748FDF772FE80B359A13448FDF7E1
:102680006DFE60B359A13248FDF768FE40B351E0DA
:10269000002200E00122082130460EE0002200E086
:1026A00001221021F8E7002200E00122414603E068
:1026B000012200E0002280213846FFF762F839E06D
:1026C000E06801F085F860680FE09FED4B0A4B4829
:1026D00080ED030A80ED020AE0680AE001E007E00D
:1026E0000BE0606801F074F8206901F071F821E0F6
:1026F000206901F087F860681AE00122082130465D
:10270000FFF73FF8012210213046FFF73AF8012287
:1027100041463846FFF735F8002280213846FFF75A
:1027200030F8E06801F06EF8A06801F06BF82069FD
:1027300001F068F8C8210648FDF7ECFD56E70000F7
:102740001600002000100240001802400000002087
:10275000F003002025730D0A000000006F70656E05
:102760005F6C656431000000636C6F73655F6C655E
:10277000643100006F70656E5F6C6564320000004C
:10278000636C6F73655F6C65643200006F70656EBB
:102790005F6C656433000000636C6F73655F6C652C
:1027A000643300006F70656E5F62656570000000E5
:1027B000636C6F73655F6265657000006F70656E56
:1027C0005F44485431310000636C6F73655F444867
:1027D000543131006F70656E5F6C6967687400001A
:1027E000636C6F73655F6C696768740072657365AD
:1027F000745F616C6C00000000000000BC000020F1
:10280000A4B0154C606800F0FDFFDFF85080A146D1
:1028100040F6543A504600F0A4FFD9F80000FDF706
:102820002AFE06460F46D8F80800FDF724FE0446A7
:102830000D46D8F80C00FDF71EFE41EC100B8DE89C
:10284000F00053EC102B06A104A800F0C9FA04A86C
:1028500000F0A6FADEE7000000000020BC00002027
:10286000232C252E32662C252E32662C252E326600
:102870002C24000010B5FEF78FFF01F015FD012894
:1028800003D0BDE8104001F0A1BC10BD30B593B03D
:1028900030216846FDF73EFD14210CA8FDF73AFDF6
:1028A0001C480025016841F080510160006800F07B
:1028B000805011901848016841F48041016000681F
:1028C000022400F480401190012000900004019047
:1028D0008001CDE9064008AA0420482182E81300BF
:1028E0000B906846FFF7E0F808B172B6FEE70CA956
:1028F0000F2081E831004FF48050CDE90F0502210F
:102900000CA8FEF7E7FF002801D072B6FEE713B06F
:1029100030BD0000403802400070004002480168AD
:1029200041F470010160704788ED00E00148FFF755
:1029300087BA00006803002010B5806B0021C185B4
:10294000C184FFF77CFA10BD0168CA6822F4907256
:10295000CA6001684A6922F001024A61016B0129DB
:1029600004D10168CA6822F01002CA60202180F8F0
:102970003E1000210163704710B5044690F83E00F8
:10298000222801D0022010BDA1684FF4805291424C
:1029900001D1206920B1A06A91421BD049B10AE05F
:1029A0002168A06A4968C1F308010180A06A801CFF
:1029B00008E0216971B12168496801F07F01017067
:1029C000A06A401CA062E08D401E0004000CE0855F
:1029D00003D01CE021684968F1E72068C16821F054
:1029E0002001C1602068C16821F48071C160206845
:1029F000416921F001014161202084F83E00206BF3
:102A0000012806D02046FFF7CFFB002020630020DE
:102A100010BD2068C16821F01001C160A18D204661
:102A2000FFF70CFAF1E7000070B504460068016991
:102A3000E26821F44051114301612169A068E26913
:102A400008436169114308432168CA6849F20C636D
:102A50009A430243CA6020684169A26921F4407127
:102A60001143416131492068884202D0304988428F
:102A700002D1FEF7D9FF01E0FEF7C6FFE2690023AD
:102A8000192164253226B2F5004F626828D0A0FBD8
:102A90000101930F9200FDF7F3FB0146B0FBF5F047
:102AA0006FF01802504301EB800006EB0010B0FB02
:102AB000F5F000F0F002B1FBF5F002EB0012B1FB13
:102AC000F5F06FF01803584301EB800006EB00109F
:102AD000B0FBF5F000F00F0021681044886070BD75
:102AE000A0FB010192185B41FDF7CAFB0146B0FB58
:102AF000F5F00201B1FBF5F06FF01803584301EB5C
:102B0000800006EBC000B0FBF5F000F0F80002EB2F
:102B10004002B1FBF5F0584301EB800006EBC0002A
:102B2000B0FBF5F000F00700D6E700000010014010
:102B30000014014081628285C28500210164222245
:102B400080F83E2080F83C100168CA6842F4807228
:102B5000CA6001684A6942F001024A610068C168BE
:102B600041F02001C160002070472DE9F0419846F6
:102B700017460E460446069D1DE0681C1BD02DB16D
:102B8000FEF704FEA0EB0800A84214D92068C16833
:102B900021F4D071C1602068416921F001014161D7
:102BA000202084F83D0084F83E00002084F83C009A
:102BB0000320BDE8F0812068006836EA000004D0F8
:102BC0000020B842D9D00020F3E70120F9E7000047
:102BD0000148FFF735B90000AC030020FEE7000014
:102BE00070B5194C194B25462678B5F90200411CE1
:102BF0000AB26978072E04D809B119540BE00020F5
:102C000013E0232910D0242915D0451EC72D03D247
:102C1000184400F8011C6280BDE870400A49012296
:102C2000491C0B48FFF7AABA01206080C821074859
:102C3000FDF770FBF0E7054906A000F0C1F84FF082
:102C4000FF306080E8E7000014000020F00300205F
:102C50006803002025730D0A0000000070B5194EAE
:102C600004464FF48045002229463046FEF789FD90
:102C70004FF4FA70FEF778FC012229463046FEF741
:102C800080FD4FF47A7515E03220FEF76DFC0EA141
:102C90000F48FDF74AFB08B1012070BD323CA4B2D9
:102CA000B4FBF5F005FB104020B9B4FBF5F109A029
:102CB00000F086F8002CE7D10AA000F081F800208F
:102CC00070BD00000014024072656164790000006C
:102CD000F003002074696D656F75742D3E25640DD9
:102CE0000A000000776169742074696D656F7574FE
:102CF0002C2074727920616761696E210D0A0000D1
:102D000070B50C461849064600204880C82117486F
:102D1000FDF700FB3046FDF71AFB82B24FF47A75DF
:102D20002B4631461248FFF749FAB0B11AE032207B
:102D3000FEF71AFC0FA10D48FDF7F7FA08B10120C4
:102D400070BDB4FBF5F005FB104020B9B4FBF5F104
:102D500009A000F035F8323CA4B2002CE7D10AA05B
:102D600000F02EF8002070BD14000020F0030020B9
:102D7000680300204F4B000074696D656F75742DFA
:102D80003E25640D0A00000074696D656F75742C32
:102D90002074727920616761696E210D0A0000005C
:102DA00010B50446FDF7D3FA214682B2BDE81040C3
:102DB0004FF47A730148FFF701BA0000680300205E
:102DC0000FB4054B10B503A9044A029800F0FEF8B1
:102DD00010BC5DF814FB000005370008B8000020A7
:102DE0000FB4084B10B504A902AA039800F0EEF83E
:102DF000044602A9002000F080FC204610BC5DF8CB
:102E000014FB0000FB3600080907090E002804DB4C
:102E100000F1E02080F80014704700F00F0000F18E
:102E2000E02080F8141D704702E008C8121F08C196
:102E3000002AFAD170477047002001E001C1121F3B
:102E4000002AFBD1704700002DE9FF5F82B000210E
:102E5000DDE90430020DDDF840B0034318D044F63C
:102E60001050A2F2FF3242431514119801281FD0CE
:102E7000A5EB0B00401C5FEA000A4FF000064E4F26
:102E8000DFF83891B046504615D5CAF1000413E07A
:102E9000119801244AA3012801D16FEA0B0102987D
:102EA000119AC0E90031C0E9024206B0BDE8F09FC6
:102EB000CBF10000DFE704460021404A491842EB0D
:102EC0000450CDE9001012E0E00707D032463B463F
:102ED00040464946FDF750FA8046894632463B4611
:102EE00010461946FDF748FA06460F466410002CB6
:102EF000EAD1DDE90401DDE90023BAF1000F06DAC9
:102F0000FDF73AFA42464B46FDF736FA05E0FDF783
:102F100051FC42464B46FDF74DFC04460E4600224E
:102F2000284BFDF7CFFC03D84FF0FF30014607E0F8
:102F30000022254B20463146FDF795FBFDF7A9FC05
:102F4000102409E0002C0ADB0A220023FDF798F97F
:102F5000039B30321A55641E50EA0102F2D1641C00
:102F6000039AC4F111031444119A012A03D00122D7
:102F700008430DD10AE0084304D000204FF0110BA4
:102F8000119072E7A3EB0B056D1E0DE05B4504DDB0
:102F90004FF0000205F1010504E003DA4FF00002F2
:102FA000A5F10105002AECD002981199C0E902317F
:102FB000C0E9004579E70000000014400000F03F40
:102FC000300000000000F0430000E03F2DE9FF4F1B
:102FD00095B09B468946064600250FE2252877D105
:102FE00000242746F84A0121059400E0044316F81E
:102FF000013F203B01FA03F01042F7D130782A2834
:1030000011D06FF02F033078A0F13002092A16D8C2
:10301000059A44F0020402EB820203EB42021044E0
:10302000761C0590EFE759F8042B0592002A03DA85
:10303000504244F40054059044F00204761C307869
:103040002E2816D116F8010F44F004042A280DD0BA
:103050006FF02F023078A0F13003092B09D807EB6D
:10306000870302EB4303C718761CF3E759F8047B88
:10307000761C30786C280FD006DC4C2817D06828D6
:103080000DD06A2814D104E0742810D07A280FD10A
:103090000DE044F400140AE044F4801401E044F428
:1030A00040147278824202D104F58014761C761C9A
:1030B000307866280BD013DC582877D009DC00283C
:1030C00075D04528F6D04628F4D047281AD19DE17E
:1030D00018E0632835D0642879D0652812D195E1AD
:1030E000702873D008DC6728F1D069286FD06E286B
:1030F0000DD06F2806D1B5E073282CD0752875D077
:10310000782874D05A46179990476D1C75E1C4F31E
:103110000250022809D003280DD0D9F80010042845
:103120000DD00D6009F1040967E1D9F80010EA1724
:10313000C1E90052F6E7D9F800100D80F2E70D70F2
:10314000F0E719F8041B8DF8001000208DF801003D
:10315000EA46012003E059F804AB4FF0FF30610765
:103160004FF0000102D40DE008F101018846B94298
:103170000FDA8045F8DB1AF808100029F4D108E0CE
:1031800008F1010188468142FADB1AF8081000298B
:10319000F6D105985B46A0EB080721463846179AFA
:1031A00000F094FA284400EB080507E04DE029E11F
:1031B0000DE01AF8010B5A4617999047B8F101082B
:1031C000F7D25B4621463846179A13E142E00A22BD
:1031D0000092C4F302524FF0000A022A08D059F8B4
:1031E00004CB032A4FEAEC710AD00DE029E02AE073
:1031F00009F1070121F00702F2E802C1914609E056
:103200000FFA8CFC4FEAEC71042A03D14FFA8CFCC4
:103210004FEAEC71002907DA0A460021DCF1000CC4
:1032200061EB02012D2202E0220504D52B228DF84C
:103230000420012203E0E20701D02022F7E79046B4
:1032400059E00A2102E010220DE010214FF0000A9F
:1032500000910BE010224FF0000A44F0040408270C
:10326000009203E008224FF0000A0092C4F30252D9
:10327000022A05D059F804CB0021032A08D009E01E
:1032800009F1070121F00702F2E802C1914605E0C9
:103290001FFA8CFC042A01D10CF0FF0C4FF000083F
:1032A000220728D5702806D0009B83F0100353EA2C
:1032B0000A0305D00EE040228DF80420012208E028
:1032C0005CEA010206D030228DF804208DF805005A
:1032D00002229046009B83F0080353EA0A030AD1B6
:1032E0005CEA010201D1620705D530228DF8042085
:1032F0004FF001087F1E582804D034A003900EA878
:1033000002900DE036A0F9E753466046009AFCF7BC
:10331000B7FF84460398825C0298401E02900270B8
:103320005CEA0100F0D1029806A9081A00F1200A0F
:10333000600702D524F4803400E00127574502DD00
:10334000A7EB0A0000E0002000EB0A0100900598BE
:103350004144401A0590E00306D45B462146179A83
:10336000059800F0B3F90544002706E001A85A4685
:10337000C05D179990476D1C7F1C4745F6DBE00345
:103380000CD55B462146179A059800F09FF9054435
:1033900004E030205A46179990476D1C0099481E4A
:1033A00000900029F5DC08E0029802995A4600785E
:1033B000491C0291179990476D1CBAF10001AAF1BE
:1033C000010AF1DC65E100000928010030313233E7
:1033D0003435363738396162636465660000000051
:1033E000303132333435363738394142434445463B
:1033F0000000000000F058F90544761C30780028E1
:103400007FF4ECAD19B02846BDE8F08F620700D418
:10341000062709F1070222F0070CFCE80223E14627
:1034200003F000485FEA080C02D00FF2702C0DE0A8
:103430005FEA045C02D50FF2682C07E05FEAC47C07
:1034400002D00FF2602C01E0AFF2700C4FF0FF38A9
:1034500023F00043CDF850C065280CD006DC452889
:1034600009D046281DD047283DD13DE0662818D018
:1034700067287ED138E00021112F01DB112000E008
:10348000781CCDE9000106A90EA8FFF7DDFCDDE9F7
:103490000F010E9A03910021009207F1010A049195
:1034A0004DE04FF000400097CDE9011006A90EA8AD
:1034B000FFF7CAFCDDE90F0203920E9B119900226F
:1034C000DDF80CA00093049211B9791C00EB010AFD
:1034D000B7EB0A0004D4C0F1FF3007F1010A0490F1
:1034E000AAEB0700019044E0012F00DA0127002138
:1034F000112F01DD112000E03846CDE9000106A9B9
:103500000EA8FFF7A1FCDDE90F010E9A039100213F
:1035100004910092BA4621070CD40399514500DA70
:103520008A46BAF1010F05DD009AAAF10101515C4A
:10353000302908D0B84202DA10F1040F06DA01216E
:10354000CDE9011015E0AAF10101E9E7002805DC49
:10355000049901440491AAEB000102E0411C514589
:1035600000DD8A460499401A401C01904FF000404B
:103570000290200704D40198504501DBCDF8048067
:1035800000208DF84F0002980DF14F07B0F1004F69
:1035900025D02B200E9002984FF0020800280CDA5C
:1035A000404202902D200E9007E00A210298FCF77D
:1035B00091FF3031029007F8011DB8F10001A8F128
:1035C0000108F2DC02980028EFD1791E0E980870ED
:1035D000307800F0200040F0450007F8020D12A8F6
:1035E000C01B00F107081498007800B1012000EB1F
:1035F0000A01019801EBE07105984144401A401E10
:103600000590E00306D45B462146179A059800F022
:103610005DF805441498007818B15A4617999047F8
:103620006D1CE00324D55B462146179A059800F0EF
:103630004DF805441CE00498002807DBDDE9030190
:10364000884203DD0098405C179901E0179930200B
:103650005A469047049805F10105401C04900198D2
:10366000401E019004D12E205A46179990476D1C98
:10367000BAF10001AAF1010ADDDC05E017F8010B3F
:103680005A46179990476D1CB8F10001A8F101083E
:10369000F4DC5B462146179A0598ABE62D00000046
:1036A0002B000000200000002DE9F0410446002519
:1036B0001E461746880404D405E039462020B0474A
:1036C0006D1C641EF9D52846BDE8F0812DE9F04156
:1036D000044600251E469046C80301D5302700E069
:1036E0002027880404D505E041463846B0476D1CC4
:1036F000641EF9D52846BDE8F0810A68531C0B60AA
:103700001070704738B504468DF80000022301227E
:1037100069460248FEF752FD204638BDAC03002042
:10372000EFF30580002800D001207047FEF73CF839
:10373000FFF7ACF8FEF702FEFEF79CFDFEF78CFEED
:10374000FEF7A6FEFDF776FAFDF79EF9FEF7C2FD3D
:1037500000F00EF8FEE701460020842900D0C81CC6
:10376000704710B500B9012000F088FB002010BDA3
:1037700010B500F0E7FB002010BD7FB50D460446F4
:103780004169B0F9080081B1A16971B1FFF7E3FFA8
:10379000D4E905128DE80700D4E900102B46226910
:1037A00000F057FD039004B070BDFFF7D4FF03A9EC
:1037B000CDE90001208A2B4682B2D4E9001000F046
:1037C0001BFD012801D00020EDE70398EBE7000086
:1037D00010B50446FFF7A4FF002820460BD000F0E8
:1037E00039FE012809D1064900070860BFF34F8F51
:1037F000BFF36F8F01E000F067FB002010BD0000F9
:1038000004ED00E010B500F0D3FB002010BD000077
:103810002DE9F041184C0F460546E6682068001D6A
:1038200000F03AFA38B9206890F82C10012088404E
:10383000216981432161681C07D137B12168BDE846
:10384000F0410E48091D00F06BBA20683544B542BE
:103850004560216805D2A06BBDE8F041091D00F06C
:1038600047BA606B091D00F043FAA06A854200D296
:10387000A562BDE8F0810000500000209405002002
:103880002DE9F041054600F057FA2E4CA068401C87
:10389000A06020682C4F10B1606940B32DE0256016
:1038A000A068012829D1002606EB860007EB8000DE
:1038B00000F010FA761C072EF6D323488C3000F067
:1038C00009FA2148A03000F005FA1F48B43000F092
:1038D00001FA1D48C83000F0FDF91B48DC3000F04B
:1038E000F9F919488C3060631430A06305E0206852
:1038F000E96AC06A884200D82560606A401C60623C
:10390000E96A0120226988401043206101EB8100AF
:1039100007EB8000291D00F003FA00F02DFA606922
:1039200000280CD02068E96AC06A884207D207499B
:103930004FF080500860BFF34F8FBFF36F8FBDE82B
:10394000F081000050000020B804002004ED00E0E9
:1039500010B5044690F8510058B101280CD0022847
:103960000FD0502080F31188BFF34F8FBFF36F8FBC
:10397000FEE7206B00F014FA2046BDE8104000F08E
:103980000FBA10BD10484FF47051420706D0C01D49
:103990000D4920F00700411AC1F570510B4A002370
:1039A0000144C2E900030839183A21F00701116007
:1039B0004B600B600B1AC0E9001393604FF000409E
:1039C0005360506170470000A8050020A40000204B
:1039D000144E154CA6F1C8074FF08058DFF84C90F4
:1039E00012E000BF00F0A8F9F068C568281D00F0DB
:1039F00053F9A068401EA0606068401E606000F03F
:103A0000BBF92846FFF7A4FF60680028EAD13868B0
:103A10000128F9D9C9F80080BFF34F8FBFF36F8F2A
:103A2000F2E70000800500205000002004ED00E0D7
:103A30002DE9F0479A46DDE9098481466FF00303DA
:103A4000206B03EB82021044089E20F007077807E2
:103A500007D0502080F31188BFF34F8FBFF36F8FD3
:103A6000FEE7002561B1002023180A5C83F83420AA
:103A70000A5C12B1401C1028F6D384F8435001E0D0
:103A800084F83450072E00D30626E662C4E9116597
:103A9000201D00F02AF904F1180000F026F9246135
:103AA000C6F107006462A061E56484F85050524694
:103AB0004946384600F0DAF82060B8F1000F01D02E
:103AC000C8F80040BDE8F08730B5114900E0114664
:103AD0000A688242FBD34B685C18844203D1406879
:103AE00018444860084643681C18944209D1084CA1
:103AF000183C2468A24209D052681A4442600A68FD
:103B000012680260814200D0086030BD0460F9E7AD
:103B1000A40000200648416B096829B1416BC968BF
:103B2000C9684968816270474FF0FF31FAE70000C9
:103B30005000002008484068401C4FF0500080F3BF
:103B4000118804D0BFF34F8FBFF36F8FFEE7BFF331
:103B50004F8FBFF36F8FFEE7AC000020002150B104
:103B60000A4B42699A420FD1806AA3F1280290421F
:103B70000AD040B108E0502080F31188BFF34F8F86
:103B8000BFF36F8FFEE701210846704794050020C0
:103B90002DE9F0410546002700F068FA324E306802
:103BA00008B9FFF7EFFE706905424ED1C5B308357D
:103BB00068070ED005F00700C0F10800054468074B
:103BC00007D0502080F31188BFF34F8FBFF36F8F62
:103BD000FEE72DB37068854237D823481830014678
:103BE0000C6801E020460C466168A94202D22168B7
:103BF0000029F7D131688C4227D00768216801601D
:103C000060680837411B10290FD96019420708D096
:103C1000502080F31188BFF34F8FBFF36F8FFEE703
:103C200013E041606560FFF74FFF61687068401AFC
:103C30007060B268904200D2B060706901430020A9
:103C4000C4E90001F068401CF06000F0A1FB7807B7
:103C500007D0502080F31188BFF34F8FBFF36F8FD1
:103C6000FEE73846BDE8F0818C00002010B5031F48
:103C70004FF080741C601B1F21F001011960191F97
:103C8000044B0B6014390A60091F6FF002024438BC
:103C90000A6010BD353B0008D0E9013201699A6025
:103CA000D0E901235A604A68824201D182684A60A1
:103CB000002202610868401E086008687047000022
:103CC000034B036003F154000860802010607047CC
:103CD000CC00002000F108014FF0FF32C0E90112D2
:103CE000C1600161002101607047002101617047DE
:103CF00030B50B685A1C02D000F1080202E00269DC
:103D000004E02246546825689D42FAD953684B6006
:103D100099608A60516008610168491C016030BD8A
:103D200042684A6093688B6093685960916008614B
:103D30000168491C01607047502080F31188BFF36F
:103D40004F8FBFF36F8F0A494868401C48600128B5
:103D50000CD10848006810F0FF0F07D0502080F306
:103D60001188BFF34F8FBFF36F8FFEE770470000DE
:103D7000AC00002004ED00E00849486828B1401E6E
:103D8000486001D180F311887047502080F311887A
:103D9000BFF34F8FBFF36F8FFEE70000AC00002032
:103DA00070B500282AD0164DA0F108046068696932
:103DB000084207D1502080F31188BFF34F8FBFF323
:103DC0006F8FFEE722683AB1502080F31188BFF36D
:103DD0004F8FBFF36F8FFEE78843606000F046F9B6
:103DE00060686968084468602046FFF76DFE2869CE
:103DF000401C2861BDE8704000F0CABA70BD0000E8
:103E00008C0000204FF0E020002101618161054914
:103E10004FF47A720968B1FBF2F1491E4161072142
:103E2000016170474C00002010B5FCF713FA1149EE
:103E300010280ED300F1E02090F8F0030A789042A9
:103E400007D2502080F31188BFF34F8FBFF36F8FDD
:103E5000FEE709480068896800F4E060884207D9F5
:103E6000502080F31188BFF34F8FBFF36F8FFEE7B1
:103E700010BD0000AC0000200CED00E010B5020009
:103E800014D00F48006B38B1502080F31188BFF375
:103E90004F8FBFF36F8FFEE700F0E8F80021104668
:103EA000FFF7B6FC00F074FA002807D105494FF07F
:103EB00080500860BFF34F8FBFF36F8F10BD0000BD
:103EC0005000002004ED00E070B504002BD01A4D26
:103ED000286884422FD0FFF72FFF2046FFF73EFED1
:103EE000E8B1201DFFF7D8FEE06A01212A69814070
:103EF00011432961114900EB800001EB8000211D75
:103F0000FFF70EFFE06A2968C96A884207D30C49A7
:103F10004FF080500860BFF34F8FBFF36F8FBDE845
:103F20007040FFF729BF502080F31188BFF34F8FF7
:103F3000BFF36F8FFEE770BD50000020B804002073
:103F400004ED00E010B586B00024039405AA04A98E
:103F500003A80494FFF7B4FEDDE903010094CDE962
:103F6000011000230EA11048059A00F072F90F49C4
:103F70000028C86211D0502080F31188BFF34F8F02
:103F8000BFF36F8F4FF0FF30886201204861CC6033
:103F900006B0BDE8104000F09FB806B010BD0000AC
:103FA00049444C4500000000D13900085000002071
:103FB00070B50446FFF7C0FE294D04B92C68201DDA
:103FC000FFF76AFE58B9E06A264A00EB800152F812
:103FD000211021B901218140286988432861A06A04
:103FE00018B104F11800FFF757FE1E48211DDC3000
:103FF000FFF796FE94F850000026012801D184F8BE
:104000005060FFF7B9FE686928B1FFF795FEFFF72A
:1040100081FDFFF7B1FE2868844213D1686990B131
:10402000286B38B1502080F31188BFF34F8FBFF356
:104030006F8FFEE70C494FF080500860BFF34F8F41
:10404000BFF36F8F70BD0748DC300068A9688842F5
:1040500001D12E6070BDBDE8704000F00FB80000C7
:1040600050000020B804002004ED00E00248016B7D
:10407000491C016370470000500000201448016B88
:1040800011B10121C16170470021C1610169B1FA1B
:1040900081F1C1F11F0101EB81020E4951F822307B
:1040A0006BB101EB820101F108034A6852684A6072
:1040B0009A4201D152684A60D1680160704750202D
:1040C00080F31188BFF34F8FBFF36F8FFEE70000BF
:1040D00050000020B80400201CB537480168374A5A
:1040E000914207D1502080F31188BFF34F8FBFF367
:1040F0006F8FFEE700683149491E884207D1502082
:1041000080F31188BFF34F8FBFF36F8FFEE72C4909
:1041100008780190FF20087008788DF800009DF85D
:1041200000009DF8002000F0F000904207D05020E1
:1041300080F31188BFF34F8FBFF36F8FFEE79DF8B9
:104140000000204C00F0500020700720A06005E027
:104150009DF8002052008DF80020401E9DF80020A0
:104160001206F5D4A060032807D0502080F31188F0
:10417000BFF34F8FBFF36F8FFEE74FF44070A06027
:10418000019808700C482030016841F4700101600A
:10419000016841F070410160FFF734FE002060606B
:1041A000FCF720F80848016841F040410160FCF745
:1041B00005F800201CBD000000ED00E071C20F41B9
:1041C00000E400E0AC00002034EF00E010B5502027
:1041D00080F31188BFF34F8FBFF36F8F00F072F839
:1041E00018B104494FF080500860002080F3118816
:1041F00010BD000004ED00E02DE9FF5F8346DDE91E
:104200000E87994616468A469000FFF7C1FC0500C6
:104210001CD05420FFF7BCFC040014D00020256300
:1042200084F85100CDE90240CDE900874B46324683
:1042300051465846FFF7FCFB2046FFF721FB0120C3
:1042400004B0BDE8F09F2846FFF7AAFD4FF0FF300D
:10425000F6E7F0B585B0DDE90B640A9DA6B1DCB1E7
:10426000542700972663022684F85160002604AF85
:10427000CDE90246CDE90057FFF7DAFB2046FFF70C
:10428000FFFA049805B0F0BD502080F31188BFF309
:104290004F8FBFF36F8FFEE7502080F31188BFF37D
:1042A0004F8FBFF36F8FFEE70548416919B1006B6F
:1042B00018B10020704701207047022070470000AD
:1042C000500000202DE9F0412F4C0026206B28B132
:1042D000A069401CA0613046BDE8F081E5686D1C16
:1042E000E56013D1606B006838B1502080F311880D
:1042F000BFF34F8FBFF36F8FFEE7606BA16B6163FE
:10430000A063206A401C2062FFF704FCA06ADFF86B
:104310007C80854209D3606B0068A0B1606BC06887
:10432000C7687868854211D2A0622068C06A00EB35
:10433000800158F82100012800D90126E0690028F1
:10434000C9D00126C7E74FF0FF30EDE7381DFFF772
:10435000A3FCB86A18B107F11800FFF79DFCF96AD1
:104360000120226988401043206101EB810108EBA4
:104370008100391DFFF7D4FCF86A2168C96A8842B8
:10438000C9D30126C7E7000050000020B804002070
:104390002DE9F0472C4D00242746286B38B1FFF754
:1043A000CBFC286B401E2863286B40B146E05020B0
:1043B00080F31188BFF34F8FBFF36F8FFEE7A968BB
:1043C000224E0120D1B3A6F1B40980463068E8B18D
:1043D000F068C46804F11800FFF75EFC201DFFF7C9
:1043E0005BFCE06A2A6908FA00F11143296100EBDD
:1043F000800109EB8100211DFFF792FCE06A29682A
:10440000C96A8842E2D3C5F81C80DFE70CB1FFF728
:1044100081FBAC6944B14646FFF754FF00B1EE6141
:10442000641EF9D10020A861E86938B10849012764
:1044300038070860BFF34F8FBFF36F8FFFF79CFC07
:104440003846BDE8F0870000500000206C050020D1
:1044500004ED00E02DE9F0410027040015D0FFF73E
:10446000E3FC5020EFF3118580F31188BFF34F8FE9
:10447000BFF36F8F2046FFF771FB30B3154E306BE3
:1044800058B104F1180114481DE0502080F3118840
:10449000BFF34F8FBFF36F8FFEE7E06A3168C96AE1
:1044A000884200D30127201DFFF7F6FBE16A0120B7
:1044B000326988401043306101EB81000649B4390C
:1044C00001EB8000211DFFF72BFC85F31188384696
:1044D000BDE8F081500000206C0500207C450008FC
:1044E000012800080000000000000000800000001B
:1044F000000000000000000070450008E1250008F1
:10450000000000000000000080000000000000002B
:10451000000000006445000871250008010000004B
:10452000000000000001000000000000000000008A
:104530008C450008CD2400080000000000000000A9
:1045400080000000000000000000000000000000EB
:104550000000000001020304060708090000000033
:104560000102030444485431315461736B0000006C
:10457000574946495265635461736B005749464930
:1045800053656E645461736B000000004C6967688A
:10459000745461736B000000B845000800000020EF
:1045A000BC000000282E000874460008BC00002053
:1045B000EC440000382E000800000000000000005D
:1045C00000000000000000000000000000000000EB
:1045D00088130000484F4E4F522039580031393867
:1045E00035333433303135003139322E3136382ECF
:1045F0003133372E310000000100000010000000B0
:10460000000000000024F400000000000000000092
:10461000000000000000000000000000000000009A
:10462000000000000000000000000000000000008A
:10463000000000000000000000000000000000007A
:10464000000000000000000000000000000000006A
:10465000000000000000000000000000000000005A
:104660000000000000000000AAAAAAAA00000000A2
:044670000000000046
:040000050800018965
:00000001FF
